{
  "address": "0x29113523b5987A11699DDA66AfDd61416b76d650",
  "abi": [
    {
      "inputs": [
        {
          "internalType": "address",
          "name": "erc721Destination",
          "type": "address"
        },
        {
          "internalType": "address",
          "name": "apiDestination",
          "type": "address"
        },
        {
          "internalType": "address",
          "name": "storageDestination",
          "type": "address"
        },
        {
          "internalType": "string",
          "name": "tokenName",
          "type": "string"
        },
        {
          "internalType": "string",
          "name": "tokenSymbol",
          "type": "string"
        }
      ],
      "stateMutability": "nonpayable",
      "type": "constructor"
    },
    {
      "anonymous": false,
      "inputs": [
        {
          "indexed": true,
          "internalType": "address",
          "name": "owner",
          "type": "address"
        },
        {
          "indexed": true,
          "internalType": "address",
          "name": "approved",
          "type": "address"
        },
        {
          "indexed": true,
          "internalType": "uint256",
          "name": "tokenId",
          "type": "uint256"
        }
      ],
      "name": "Approval",
      "type": "event"
    },
    {
      "anonymous": false,
      "inputs": [
        {
          "indexed": true,
          "internalType": "address",
          "name": "owner",
          "type": "address"
        },
        {
          "indexed": true,
          "internalType": "address",
          "name": "operator",
          "type": "address"
        },
        {
          "indexed": false,
          "internalType": "bool",
          "name": "approved",
          "type": "bool"
        }
      ],
      "name": "ApprovalForAll",
      "type": "event"
    },
    {
      "anonymous": false,
      "inputs": [
        {
          "indexed": false,
          "internalType": "uint256",
          "name": "tokenId",
          "type": "uint256"
        },
        {
          "indexed": true,
          "internalType": "address",
          "name": "sender",
          "type": "address"
        },
        {
          "indexed": false,
          "internalType": "uint256",
          "name": "drinkId",
          "type": "uint256"
        }
      ],
      "name": "DrinkAccepted",
      "type": "event"
    },
    {
      "anonymous": false,
      "inputs": [
        {
          "indexed": false,
          "internalType": "uint256",
          "name": "tokenId",
          "type": "uint256"
        },
        {
          "indexed": true,
          "internalType": "address",
          "name": "sender",
          "type": "address"
        }
      ],
      "name": "DrinkRefilled",
      "type": "event"
    },
    {
      "anonymous": false,
      "inputs": [
        {
          "indexed": false,
          "internalType": "uint256",
          "name": "tokenId",
          "type": "uint256"
        },
        {
          "indexed": true,
          "internalType": "address",
          "name": "sender",
          "type": "address"
        }
      ],
      "name": "DrinkRequested",
      "type": "event"
    },
    {
      "anonymous": false,
      "inputs": [
        {
          "indexed": true,
          "internalType": "address",
          "name": "sender",
          "type": "address"
        },
        {
          "indexed": true,
          "internalType": "address",
          "name": "changee",
          "type": "address"
        },
        {
          "indexed": false,
          "internalType": "bool",
          "name": "value",
          "type": "bool"
        }
      ],
      "name": "PermissionChange",
      "type": "event"
    },
    {
      "anonymous": false,
      "inputs": [
        {
          "indexed": true,
          "internalType": "address",
          "name": "from",
          "type": "address"
        },
        {
          "indexed": true,
          "internalType": "address",
          "name": "to",
          "type": "address"
        },
        {
          "indexed": true,
          "internalType": "uint256",
          "name": "tokenId",
          "type": "uint256"
        }
      ],
      "name": "Transfer",
      "type": "event"
    },
    {
      "anonymous": false,
      "inputs": [
        {
          "indexed": true,
          "internalType": "address",
          "name": "from",
          "type": "address"
        },
        {
          "indexed": true,
          "internalType": "address",
          "name": "to",
          "type": "address"
        }
      ],
      "name": "TransferedOwnership",
      "type": "event"
    },
    {
      "inputs": [
        {
          "internalType": "uint256",
          "name": "tokenId",
          "type": "uint256"
        },
        {
          "internalType": "bytes",
          "name": "drinkCode",
          "type": "bytes"
        }
      ],
      "name": "acceptDrink",
      "outputs": [],
      "stateMutability": "nonpayable",
      "type": "function"
    },
    {
      "inputs": [],
      "name": "approvalCount",
      "outputs": [
        {
          "internalType": "uint256",
          "name": "",
          "type": "uint256"
        }
      ],
      "stateMutability": "view",
      "type": "function"
    },
    {
      "inputs": [
        {
          "internalType": "address",
          "name": "_to",
          "type": "address"
        },
        {
          "internalType": "uint256",
          "name": "_tokenId",
          "type": "uint256"
        }
      ],
      "name": "approve",
      "outputs": [],
      "stateMutability": "nonpayable",
      "type": "function"
    },
    {
      "inputs": [
        {
          "internalType": "address",
          "name": "",
          "type": "address"
        }
      ],
      "name": "approved",
      "outputs": [
        {
          "internalType": "bool",
          "name": "",
          "type": "bool"
        }
      ],
      "stateMutability": "view",
      "type": "function"
    },
    {
      "inputs": [
        {
          "internalType": "address",
          "name": "_owner",
          "type": "address"
        }
      ],
      "name": "balanceOf",
      "outputs": [
        {
          "internalType": "uint256",
          "name": "",
          "type": "uint256"
        }
      ],
      "stateMutability": "view",
      "type": "function"
    },
    {
      "inputs": [],
      "name": "currentTokenId",
      "outputs": [
        {
          "internalType": "uint256",
          "name": "",
          "type": "uint256"
        }
      ],
      "stateMutability": "view",
      "type": "function"
    },
    {
      "inputs": [
        {
          "internalType": "uint256",
          "name": "tokenId",
          "type": "uint256"
        }
      ],
      "name": "denyDrink",
      "outputs": [],
      "stateMutability": "nonpayable",
      "type": "function"
    },
    {
      "inputs": [],
      "name": "deployer",
      "outputs": [
        {
          "internalType": "address",
          "name": "",
          "type": "address"
        }
      ],
      "stateMutability": "view",
      "type": "function"
    },
    {
      "inputs": [
        {
          "internalType": "uint256",
          "name": "_tokenId",
          "type": "uint256"
        }
      ],
      "name": "exists",
      "outputs": [
        {
          "internalType": "bool",
          "name": "",
          "type": "bool"
        }
      ],
      "stateMutability": "view",
      "type": "function"
    },
    {
      "inputs": [
        {
          "internalType": "uint256",
          "name": "_tokenId",
          "type": "uint256"
        }
      ],
      "name": "getApproved",
      "outputs": [
        {
          "internalType": "address",
          "name": "",
          "type": "address"
        }
      ],
      "stateMutability": "view",
      "type": "function"
    },
    {
      "inputs": [],
      "name": "hasDrink",
      "outputs": [
        {
          "internalType": "bool",
          "name": "",
          "type": "bool"
        }
      ],
      "stateMutability": "view",
      "type": "function"
    },
    {
      "inputs": [
        {
          "internalType": "uint256",
          "name": "tokenId",
          "type": "uint256"
        }
      ],
      "name": "hasRequest",
      "outputs": [
        {
          "internalType": "bool",
          "name": "",
          "type": "bool"
        }
      ],
      "stateMutability": "view",
      "type": "function"
    },
    {
      "inputs": [
        {
          "internalType": "address",
          "name": "_owner",
          "type": "address"
        },
        {
          "internalType": "address",
          "name": "_operator",
          "type": "address"
        }
      ],
      "name": "isApprovedForAll",
      "outputs": [
        {
          "internalType": "bool",
          "name": "",
          "type": "bool"
        }
      ],
      "stateMutability": "view",
      "type": "function"
    },
    {
      "inputs": [
        {
          "internalType": "address",
          "name": "addr",
          "type": "address"
        },
        {
          "internalType": "uint256",
          "name": "tokenId",
          "type": "uint256"
        }
      ],
      "name": "isApprovedOrOwner",
      "outputs": [
        {
          "internalType": "bool",
          "name": "",
          "type": "bool"
        }
      ],
      "stateMutability": "view",
      "type": "function"
    },
    {
      "inputs": [
        {
          "internalType": "address",
          "name": "addr",
          "type": "address"
        }
      ],
      "name": "isAuthenticated",
      "outputs": [
        {
          "internalType": "bool",
          "name": "",
          "type": "bool"
        }
      ],
      "stateMutability": "view",
      "type": "function"
    },
    {
      "inputs": [
        {
          "internalType": "uint256",
          "name": "tokenId",
          "type": "uint256"
        }
      ],
      "name": "isDrinkFull",
      "outputs": [
        {
          "internalType": "bool",
          "name": "",
          "type": "bool"
        }
      ],
      "stateMutability": "view",
      "type": "function"
    },
    {
      "inputs": [
        {
          "internalType": "address[]",
          "name": "addrs",
          "type": "address[]"
        }
      ],
      "name": "multiApprove",
      "outputs": [],
      "stateMutability": "nonpayable",
      "type": "function"
    },
    {
      "inputs": [
        {
          "internalType": "address[]",
          "name": "addrs",
          "type": "address[]"
        }
      ],
      "name": "multiRevoke",
      "outputs": [],
      "stateMutability": "nonpayable",
      "type": "function"
    },
    {
      "inputs": [],
      "name": "name",
      "outputs": [
        {
          "internalType": "string",
          "name": "",
          "type": "string"
        }
      ],
      "stateMutability": "view",
      "type": "function"
    },
    {
      "inputs": [
        {
          "internalType": "uint256",
          "name": "_tokenId",
          "type": "uint256"
        }
      ],
      "name": "ownerOf",
      "outputs": [
        {
          "internalType": "address",
          "name": "",
          "type": "address"
        }
      ],
      "stateMutability": "view",
      "type": "function"
    },
    {
      "inputs": [
        {
          "internalType": "uint256",
          "name": "tokenId",
          "type": "uint256"
        }
      ],
      "name": "refillDrink",
      "outputs": [],
      "stateMutability": "nonpayable",
      "type": "function"
    },
    {
      "inputs": [
        {
          "internalType": "uint256",
          "name": "tokenId",
          "type": "uint256"
        },
        {
          "internalType": "bytes",
          "name": "drinkCode",
          "type": "bytes"
        }
      ],
      "name": "requestDrink",
      "outputs": [],
      "stateMutability": "nonpayable",
      "type": "function"
    },
    {
      "inputs": [
        {
          "internalType": "address",
          "name": "_from",
          "type": "address"
        },
        {
          "internalType": "address",
          "name": "_to",
          "type": "address"
        },
        {
          "internalType": "uint256",
          "name": "_tokenId",
          "type": "uint256"
        }
      ],
      "name": "safeTransferFrom",
      "outputs": [],
      "stateMutability": "nonpayable",
      "type": "function"
    },
    {
      "inputs": [
        {
          "internalType": "address",
          "name": "_from",
          "type": "address"
        },
        {
          "internalType": "address",
          "name": "_to",
          "type": "address"
        },
        {
          "internalType": "uint256",
          "name": "_tokenId",
          "type": "uint256"
        },
        {
          "internalType": "bytes",
          "name": "_data",
          "type": "bytes"
        }
      ],
      "name": "safeTransferFrom",
      "outputs": [],
      "stateMutability": "nonpayable",
      "type": "function"
    },
    {
      "inputs": [
        {
          "internalType": "address",
          "name": "_operator",
          "type": "address"
        },
        {
          "internalType": "bool",
          "name": "_approved",
          "type": "bool"
        }
      ],
      "name": "setApprovalForAll",
      "outputs": [],
      "stateMutability": "nonpayable",
      "type": "function"
    },
    {
      "inputs": [
        {
          "internalType": "address",
          "name": "addr",
          "type": "address"
        },
        {
          "internalType": "bool",
          "name": "value",
          "type": "bool"
        }
      ],
      "name": "setPrivilages",
      "outputs": [],
      "stateMutability": "nonpayable",
      "type": "function"
    },
    {
      "inputs": [
        {
          "internalType": "bytes4",
          "name": "interfaceId",
          "type": "bytes4"
        }
      ],
      "name": "supportsInterface",
      "outputs": [
        {
          "internalType": "bool",
          "name": "",
          "type": "bool"
        }
      ],
      "stateMutability": "view",
      "type": "function"
    },
    {
      "inputs": [],
      "name": "symbol",
      "outputs": [
        {
          "internalType": "string",
          "name": "",
          "type": "string"
        }
      ],
      "stateMutability": "view",
      "type": "function"
    },
    {
      "inputs": [
        {
          "internalType": "uint256",
          "name": "_tokenId",
          "type": "uint256"
        }
      ],
      "name": "tokenURI",
      "outputs": [
        {
          "internalType": "string",
          "name": "",
          "type": "string"
        }
      ],
      "stateMutability": "view",
      "type": "function"
    },
    {
      "inputs": [
        {
          "internalType": "address",
          "name": "_from",
          "type": "address"
        },
        {
          "internalType": "address",
          "name": "_to",
          "type": "address"
        },
        {
          "internalType": "uint256",
          "name": "_tokenId",
          "type": "uint256"
        }
      ],
      "name": "transferFrom",
      "outputs": [],
      "stateMutability": "nonpayable",
      "type": "function"
    },
    {
      "inputs": [
        {
          "internalType": "address",
          "name": "addr",
          "type": "address"
        }
      ],
      "name": "transferOwnership",
      "outputs": [],
      "stateMutability": "nonpayable",
      "type": "function"
    }
  ],
  "transactionHash": "0x3a0e2bf254adf23e9bb8135d36c8df42e44184acfb9bbfa3f90226965945c71b",
  "args": [
    "0x6958952a87903936f1d3e1ba19E97A0eFd4aE4fB",
    "0x410dC355A11db37454f0Ed7e2E2503aEa05e78c2",
    "0xD12EaB6F43D0479c914e23368496196aa9539936",
    "Party🎉Pass🥃",
    "Party🎉Pass🥃"
  ],
  "numDeployments": 1,
  "solcInputHash": "9510b80a1c2560ac801f86a6f40dd699",
  "bytecode": "0x60806040523480156200001157600080fd5b5060405162002dad38038062002dad83398101604081905262000034916200026a565b8151829082906200004d906005906020850190620000da565b50805162000063906006906020840190620000da565b505060078054336001600160a01b031991821681179092556000918252600a60205260408220805460ff191660011790556008829055600991909155600b805482166001600160a01b03988916179055600c80548216968816969096179095555050600d805490931691909316179055506200034a565b828054620000e8906200030d565b90600052602060002090601f0160209004810192826200010c576000855562000157565b82601f106200012757805160ff191683800117855562000157565b8280016001018555821562000157579182015b82811115620001575782518255916020019190600101906200013a565b506200016592915062000169565b5090565b5b808211156200016557600081556001016200016a565b80516001600160a01b03811681146200019857600080fd5b919050565b634e487b7160e01b600052604160045260246000fd5b600082601f830112620001c557600080fd5b81516001600160401b0380821115620001e257620001e26200019d565b604051601f8301601f19908116603f011681019082821181831017156200020d576200020d6200019d565b816040528381526020925086838588010111156200022a57600080fd5b600091505b838210156200024e57858201830151818301840152908201906200022f565b83821115620002605760008385830101525b9695505050505050565b600080600080600060a086880312156200028357600080fd5b6200028e8662000180565b94506200029e6020870162000180565b9350620002ae6040870162000180565b60608701519093506001600160401b0380821115620002cc57600080fd5b620002da89838a01620001b3565b93506080880151915080821115620002f157600080fd5b506200030088828901620001b3565b9150509295509295909350565b600181811c908216806200032257607f821691505b602082108114156200034457634e487b7160e01b600052602260045260246000fd5b50919050565b612a53806200035a6000396000f3fe608060405234801561001057600080fd5b50600436106101745760003560e01c80629a9b7b1461017957806301ffc9a71461019557806306fdde03146101b8578063081812fc146101cd578063095ea7b3146101f857806310a8c7a91461020d57806323b872dd1461022057806326bd763a1461023357806331ed86d214610246578063408627e71461025957806342842e0e14610271578063430c2081146102845780634f558e79146102975780636352211e146102aa5780636884d0a6146102bd57806370a08231146102c657806376770b2f146102ef578063909db5f91461030257806395d89b41146103155780639f38007e1461031d578063a22cb46514610330578063b88d4fde14610343578063b904c3ba14610356578063c575595c14610369578063c87b56dd1461037c578063d15d41501461038f578063d5f39488146103a2578063d8b964e6146103b5578063e985e9c5146103d8578063f2fde38b146103eb578063fe684c0e146103fe575b600080fd5b610182600e5481565b6040519081526020015b60405180910390f35b6101a86101a3366004611e23565b610411565b604051901515815260200161018c565b6101c0610463565b60405161018c9190611e98565b6101e06101db366004611eab565b6104f5565b6040516001600160a01b03909116815260200161018c565b61020b610206366004611ed9565b610510565b005b61020b61021b366004611f97565b610665565b61020b61022e366004612035565b610712565b61020b6102413660046120ee565b610882565b61020b610254366004611f97565b610ad8565b3360009081526011602052604090205460ff166101a8565b61020b61027f366004612035565b610b81565b6101a8610292366004611ed9565b610ba1565b6101a86102a5366004611eab565b610c00565b6101e06102b8366004611eab565b610c1d565b61018260095481565b6101826102d4366004612134565b6001600160a01b031660009081526004602052604090205490565b6101a86102fd366004611eab565b610c82565b61020b6103103660046120ee565b610d4a565b6101c06110c1565b61020b61032b366004611eab565b6110d0565b61020b61033e36600461215f565b61140e565b61020b610351366004612198565b61147b565b6101a8610364366004611eab565b61148d565b61020b610377366004611eab565b6114af565b6101c061038a366004611eab565b61157b565b6101a861039d366004612134565b61161d565b6007546101e0906001600160a01b031681565b6101a86103c3366004612134565b600a6020526000908152604090205460ff1681565b6101a86103e6366004612203565b611656565b61020b6103f9366004612134565b611684565b61020b61040c36600461215f565b61172a565b60006001600160e01b031982166380ac58cd60e01b148061044257506001600160e01b03198216635b5e139f60e01b145b8061045d57506301ffc9a760e01b6001600160e01b03198316145b92915050565b60606005805461047290612231565b80601f016020809104026020016040519081016040528092919081815260200182805461049e90612231565b80156104eb5780601f106104c0576101008083540402835291602001916104eb565b820191906000526020600020905b8154815290600101906020018083116104ce57829003601f168201915b5050505050905090565b6000908152600260205260409020546001600160a01b031690565b600061051b82610c1d565b9050806001600160a01b0316836001600160a01b0316141561057b5760405162461bcd60e51b815260206004820152601460248201527331b0b73737ba1030b8383937bb329037bbb732b960611b60448201526064015b60405180910390fd5b336001600160a01b038216148061059757506105978133611656565b6106095760405162461bcd60e51b815260206004820152603d60248201527f4552433732313a20617070726f76652063616c6c6572206973206e6f7420746f60448201527f6b656e206f776e6572206f7220617070726f76656420666f7220616c6c0000006064820152608401610572565b60008281526002602052604080822080546001600160a01b0319166001600160a01b0387811691821790925591518593918516917f8c5be1e5ebec7d5bd14f71427d1e84f3dd0314c0f7b2291e5b200ac8c7c3b92591a4505050565b6007546001600160a01b0316331461068f5760405162461bcd60e51b81526004016105729061226c565b805161069a57600080fd5b60005b815181101561070e576001600a60008484815181106106be576106be612292565b6020908102919091018101516001600160a01b031682528101919091526040016000908120805460ff1916921515929092179091556009805491610701836122be565b909155505060010161069d565b5050565b61071c3382610ba1565b6107605760405162461bcd60e51b81526020600482015260156024820152743737ba1030b8383937bb32b21037b91037bbb732b960591b6044820152606401610572565b6001600160a01b0383166107b05760405162461bcd60e51b815260206004820152601760248201527673656e64696e6720746f206e756c6c206164647265737360481b6044820152606401610572565b600081815260026020908152604080832080546001600160a01b03191690556001600160a01b0386168352600490915281208054600192906107f39084906122d9565b90915550506001600160a01b03821660009081526004602052604081208054600192906108219084906122f0565b909155505060008181526020819052604080822080546001600160a01b0319166001600160a01b0386811691821790925591518493918716917fddf252ad1be2c89b69c2b068fc378daa952ba7f163c4a11628f55a4df523b3ef91a4505050565b600b546001600160a01b031663430c208133846040518363ffffffff1660e01b81526004016108b2929190612308565b602060405180830381865afa1580156108cf573d6000803e3d6000fd5b505050506040513d601f19601f820116820180604052508101906108f39190612321565b61090f5760405162461bcd60e51b81526004016105729061233e565b600d54604051636c51371d60e11b81526000916001600160a01b03169063d8a26e3a90610940908690600401612381565b600060405180830381865afa15801561095d573d6000803e3d6000fd5b505050506040513d6000823e601f3d908101601f1916820160405261098591908101906124c7565b9050600081608001518060200190518101906109a19190612321565b905080610a155760405162461bcd60e51b815260206004820152603c60248201527f796f7572206472696e6b206973206e6f742066756c6c20616e6420796f75206e60448201527b65656420746f20726566696c6c20697420696e20373220686f75727360201b6064820152608401610572565b60008481526010602052604090208054610a2e90612231565b159050610a7d5760405162461bcd60e51b815260206004820152601f60248201527f746865726520697320616c726561647920612072657175657374206f70656e006044820152606401610572565b60008481526010602090815260409091208451610a9c92860190611d3e565b5060405184815233907f7baea968e7ae50bd310512d08904f7be8d0f70c35f7e232d8b803759c5074cc49060200160405180910390a250505050565b6007546001600160a01b03163314610b025760405162461bcd60e51b81526004016105729061226c565b8051610b0d57600080fd5b60005b815181101561070e576000600a6000848481518110610b3157610b31612292565b6020908102919091018101516001600160a01b031682528101919091526040016000908120805460ff1916921515929092179091556009805491610b74836125f7565b9091555050600101610b10565b610b9c83838360405180602001604052806000815250611847565b505050565b600080610bad83610c1d565b9050806001600160a01b0316846001600160a01b03161480610bd45750610bd48185611656565b80610bf85750836001600160a01b0316610bed846104f5565b6001600160a01b0316145b949350505050565b6000908152602081905260409020546001600160a01b0316151590565b6000610c2882610c00565b610c665760405162461bcd60e51b815260206004820152600f60248201526e1a5b9d985b1a59081d1bdad95b9259608a1b6044820152606401610572565b506000908152602081905260409020546001600160a01b031690565b600d54604051636c51371d60e11b815260009182916001600160a01b039091169063d8a26e3a90610cb7908690600401612381565b600060405180830381865afa158015610cd4573d6000803e3d6000fd5b505050506040513d6000823e601f3d908101601f19168201604052610cfc91908101906124c7565b60408101519091506001600160a01b0316151580610d1d5750608081015151155b15610d2b5750600092915050565b8060800151806020019051810190610d439190612321565b9392505050565b6007546001600160a01b0316331480610d725750336000908152600a602052604090205460ff165b610d7b336118b7565b610d84306118b7565b604051602001610d9592919061260e565b60405160208183030381529060405290610dc25760405162461bcd60e51b81526004016105729190611e98565b5060008281526010602052604090208054610ddc90612231565b15159050610dfc5760405162461bcd60e51b81526004016105729061266a565b60008281526010602052604090208054610e9e9190610e1a90612231565b80601f0160208091040260200160405190810160405280929190818152602001828054610e4690612231565b8015610e935780601f10610e6857610100808354040283529160200191610e93565b820191906000526020600020905b815481529060010190602001808311610e7657829003601f168201915b5050505050826119fe565b15610ef75760405162461bcd60e51b815260206004820152602360248201527f6472696e6b20636f6465206d757374206d6174636820776861742069732067696044820152623b32b760e91b6064820152608401610572565b610f04426203f4806122f0565b6000838152600f602052604080822092909255600d549151636c51371d60e11b815290916001600160a01b03169063d8a26e3a90610f46908690600401612381565b600060405180830381865afa158015610f63573d6000803e3d6000fd5b505050506040513d6000823e601f3d908101601f19168201604052610f8b91908101906124c7565b60408051600060208201529192500160408051601f198184030181529181526080830191909152600d54905163b7de9b7b60e01b81526001600160a01b039091169063b7de9b7b90610fe3908690859060040161271b565b600060405180830381600087803b158015610ffd57600080fd5b505af1158015611011573d6000803e3d6000fd5b505050506110358160400151600e5460405180602001604052806000815250611aa0565b6040808201516001600160a01b03166000908152601160205220805460ff191660011790556110613390565b6001600160a01b03167f2670780bbab62cb67f891e8fc1e85472c95a7cbc49695aa40c8b0ec7c21ba8bf84600e600081548092919061109f906122be565b90915550604080519283526020830191909152015b60405180910390a2505050565b60606006805461047290612231565b600b546001600160a01b031663430c208133836040518363ffffffff1660e01b8152600401611100929190612308565b602060405180830381865afa15801561111d573d6000803e3d6000fd5b505050506040513d601f19601f820116820180604052508101906111419190612321565b61115d5760405162461bcd60e51b81526004016105729061233e565b3360009081526011602052604090205460ff166111cc5760405162461bcd60e51b815260206004820152602760248201527f796f7520646f206e6f7420686176652061206472696e6b20746f6b656e20746f604482015266081c99599a5b1b60ca1b6064820152608401610572565b600d54604051636c51371d60e11b81526000916001600160a01b03169063d8a26e3a906111fd908590600401612381565b600060405180830381865afa15801561121a573d6000803e3d6000fd5b505050506040513d6000823e601f3d908101601f1916820160405261124291908101906124c7565b90506000816080015180602001905181019061125e9190612321565b905080156112d05760405162461bcd60e51b815260206004820152603960248201527f796f7572206472696e6b206973207374696c6c2066756c6c20616e6420646f656044820152781cc81b9bdd081b995959081d1bc81899481c99599a5b1b1959603a1b6064820152608401610572565b6000838152600f602052604090205442116113465760405162461bcd60e51b815260206004820152603060248201527f796f75206e65656420746f207761697420373220686f75727320746f20636c6160448201526f696d20616e6f74686572206472696e6b60801b6064820152608401610572565b60408051600160208201520160408051601f198184030181529181526080840191909152600d54905163b7de9b7b60e01b81526001600160a01b039091169063b7de9b7b9061139b908690869060040161271b565b600060405180830381600087803b1580156113b557600080fd5b505af11580156113c9573d6000803e3d6000fd5b505050506113d43390565b6001600160a01b03167f71a8aafd03679acc8d8efef1c402cda7773ae33c824e32f2bc0896e3053d7e30846040516110b491815260200190565b3360008181526003602090815260408083206001600160a01b03871680855290835292819020805460ff191686151590811790915590519081529192917f17307eab39ab6107e8899845ad3d59bd9653f200f220920489ca2b5937696c3191015b60405180910390a35050565b61148784848484611847565b50505050565b600081815260106020526040812080546114a690612231565b15159392505050565b6007546001600160a01b03163314806114d75750336000908152600a602052604090205460ff165b6114e0336118b7565b6114e9306118b7565b6040516020016114fa92919061260e565b604051602081830303815290604052906115275760405162461bcd60e51b81526004016105729190611e98565b506000818152601060205260409020805461154190612231565b151590506115615760405162461bcd60e51b81526004016105729061266a565b600081815260106020526040812061157891611dc2565b50565b600081815260016020526040902080546060919061159890612231565b80601f01602080910402602001604051908101604052809291908181526020018280546115c490612231565b80156116115780601f106115e657610100808354040283529160200191611611565b820191906000526020600020905b8154815290600101906020018083116115f457829003601f168201915b50505050509050919050565b6007546000906001600160a01b038381169116148061045d5750506001600160a01b03166000908152600a602052604090205460ff1690565b6001600160a01b03918216600090815260036020908152604080832093909416825291909152205460ff1690565b6007546001600160a01b031633146116ae5760405162461bcd60e51b81526004016105729061226c565b600780546001600160a01b039081166000908152600a6020526040808220805460ff1990811690915584546001600160a01b03191693861693841790945582825280822080549094166001179093559151909133917f93091b3f3cd424efabc74e181f3799f3476ed758412561ed3b29515c51f567529190a350565b6007546001600160a01b031633146117545760405162461bcd60e51b81526004016105729061226c565b6007546001600160a01b03838116911614156117ab5760405162461bcd60e51b815260206004820152601660248201527531b0b73737ba1036b7b234b33c903232b83637bcb2b960511b6044820152606401610572565b6001600160a01b0382166000908152600a60205260409020805460ff191682158015919091179091556117f257600980549060006117e8836122be565b9190505550611808565b60098054906000611802836125f7565b91905055505b60405181151581526001600160a01b0383169033907ff38de818d000d07d091732dd783c6855722d7bc1934d92b7635133289d3416959060200161146f565b611852848484610712565b61185f3385858585611bc1565b6114875760405162461bcd60e51b815260206004820152602360248201527f45524337323120526563656976657220436f6e6669726d6174696f6e2049732060448201526210985960ea1b6064820152608401610572565b60408051602880825260608281019093526000919060208201818036833701905050905060005b60148110156119f75760006118f48260136122d9565b6118ff906008612809565b61190a90600261290c565b61191d906001600160a01b03871661292e565b60f81b9050600060108260f81c6119349190612942565b60f81b905060008160f81c601061194b9190612964565b8360f81c6119599190612985565b60f81b905061196782611d03565b85611973866002612809565b8151811061198357611983612292565b60200101906001600160f81b031916908160001a9053506119a381611d03565b856119af866002612809565b6119ba9060016122f0565b815181106119ca576119ca612292565b60200101906001600160f81b031916908160001a90535050505080806119ef906122be565b9150506118de565b5092915050565b8151815160009184918491908114611a1c576000935050505061045d565b60005b81811015611a9357828181518110611a3957611a39612292565b602001015160f81c60f81b6001600160f81b031916848281518110611a6057611a60612292565b01602001516001600160f81b03191614611a8157600094505050505061045d565b80611a8b816122be565b915050611a1f565b5060019695505050505050565b6001600160a01b038316611ae15760405162461bcd60e51b81526020600482015260086024820152670c1e0c081b5a5b9d60c21b6044820152606401610572565b611aea82610c00565b15611b285760405162461bcd60e51b815260206004820152600e60248201526d185b1c9958591e481b5a5b9d195960921b6044820152606401610572565b6001600160a01b0383166000908152600460205260408120805460019290611b519084906122f0565b909155505060008281526020819052604080822080546001600160a01b0319166001600160a01b03871690811790915590518492907fddf252ad1be2c89b69c2b068fc378daa952ba7f163c4a11628f55a4df523b3ef908290a4611bb83330858585611bc1565b610b9c57600080fd5b6000833b611bd157506001611cfa565b604051630a85bd0160e11b81526001600160a01b0385169063150b7a0290611c039089908990889088906004016129a8565b6020604051808303816000875af1925050508015611c3e575060408051601f3d908101601f19168201909252611c3b918101906129db565b60015b611ce4573d808015611c6c576040519150601f19603f3d011682016040523d82523d6000602084013e611c71565b606091505b508051611cdc5760405162461bcd60e51b815260206004820152603360248201527f5468697320636f6e747261637420646f6573206e6f7420696d706c656d656e746044820152721030b71024a2a9219b9918a932b1b2b4bb32b960691b6064820152608401610572565b805181602001fd5b6001600160e01b031916630a85bd0160e11b1490505b95945050505050565b6000600a60f883901c1015611d2a57611d2160f883901c60306129f8565b60f81b92915050565b611d2160f883901c60576129f8565b919050565b828054611d4a90612231565b90600052602060002090601f016020900481019282611d6c5760008555611db2565b82601f10611d8557805160ff1916838001178555611db2565b82800160010185558215611db2579182015b82811115611db2578251825591602001919060010190611d97565b50611dbe929150611df8565b5090565b508054611dce90612231565b6000825580601f10611dde575050565b601f01602090049060005260206000209081019061157891905b5b80821115611dbe5760008155600101611df9565b6001600160e01b03198116811461157857600080fd5b600060208284031215611e3557600080fd5b8135610d4381611e0d565b60005b83811015611e5b578181015183820152602001611e43565b838111156114875750506000910152565b60008151808452611e84816020860160208601611e40565b601f01601f19169290920160200192915050565b602081526000610d436020830184611e6c565b600060208284031215611ebd57600080fd5b5035919050565b6001600160a01b038116811461157857600080fd5b60008060408385031215611eec57600080fd5b8235611ef781611ec4565b946020939093013593505050565b634e487b7160e01b600052604160045260246000fd5b60405161010081016001600160401b0381118282101715611f3e57611f3e611f05565b60405290565b604051601f8201601f191681016001600160401b0381118282101715611f6c57611f6c611f05565b604052919050565b60006001600160401b03821115611f8d57611f8d611f05565b5060051b60200190565b60006020808385031215611faa57600080fd5b82356001600160401b03811115611fc057600080fd5b8301601f81018513611fd157600080fd5b8035611fe4611fdf82611f74565b611f44565b81815260059190911b8201830190838101908783111561200357600080fd5b928401925b8284101561202a57833561201b81611ec4565b82529284019290840190612008565b979650505050505050565b60008060006060848603121561204a57600080fd5b833561205581611ec4565b9250602084013561206581611ec4565b929592945050506040919091013590565b60006001600160401b0382111561208f5761208f611f05565b50601f01601f191660200190565b600082601f8301126120ae57600080fd5b81356120bc611fdf82612076565b8181528460208386010111156120d157600080fd5b816020850160208301376000918101602001919091529392505050565b6000806040838503121561210157600080fd5b8235915060208301356001600160401b0381111561211e57600080fd5b61212a8582860161209d565b9150509250929050565b60006020828403121561214657600080fd5b8135610d4381611ec4565b801515811461157857600080fd5b6000806040838503121561217257600080fd5b823561217d81611ec4565b9150602083013561218d81612151565b809150509250929050565b600080600080608085870312156121ae57600080fd5b84356121b981611ec4565b935060208501356121c981611ec4565b92506040850135915060608501356001600160401b038111156121eb57600080fd5b6121f78782880161209d565b91505092959194509250565b6000806040838503121561221657600080fd5b823561222181611ec4565b9150602083013561218d81611ec4565b600181811c9082168061224557607f821691505b6020821081141561226657634e487b7160e01b600052602260045260246000fd5b50919050565b6020808252600c908201526b3737ba103232b83637bcb2b960a11b604082015260600190565b634e487b7160e01b600052603260045260246000fd5b634e487b7160e01b600052601160045260246000fd5b60006000198214156122d2576122d26122a8565b5060010190565b6000828210156122eb576122eb6122a8565b500390565b60008219821115612303576123036122a8565b500190565b6001600160a01b03929092168252602082015260400190565b60006020828403121561233357600080fd5b8151610d4381612151565b60208082526023908201527f73656e646572206d75737420626520617070726f76656420666f7220746f6b656040820152621b925960ea1b606082015260800190565b63ffffffff91909116815260200190565b805163ffffffff81168114611d3957600080fd5b8051611d3981611ec4565b600082601f8301126123c257600080fd5b815160206123d2611fdf83611f74565b82815260059290921b840181019181810190868411156123f157600080fd5b8286015b848110156124135761240681612392565b83529183019183016123f5565b509695505050505050565b600082601f83011261242f57600080fd5b815161243d611fdf82612076565b81815284602083860101111561245257600080fd5b610bf8826020830160208701611e40565b600082601f83011261247457600080fd5b81516020612484611fdf83611f74565b82815260059290921b840181019181810190868411156124a357600080fd5b8286015b848110156124135780516124ba81611ec4565b83529183019183016124a7565b6000602082840312156124d957600080fd5b81516001600160401b03808211156124f057600080fd5b90830190610100828603121561250557600080fd5b61250d611f1b565b61251683612392565b815261252460208401612392565b6020820152612535604084016123a6565b604082015260608301518281111561254c57600080fd5b612558878286016123b1565b60608301525060808301518281111561257057600080fd5b61257c8782860161241e565b60808301525060a08301518281111561259457600080fd5b6125a0878286016123b1565b60a08301525060c0830151828111156125b857600080fd5b6125c4878286016123b1565b60c08301525060e0830151828111156125dc57600080fd5b6125e887828601612463565b60e08301525095945050505050565b600081612606576126066122a8565b506000190190565b61060f60f31b81526000835161262b816002850160208801611e40565b72040dcdee840c2e0e0e4deeccac840dedc4060f606b1b600291840191820152835161265e816015840160208801611e40565b01601501949350505050565b6020808252601e908201527f6e6f2072657175657374206f70656e20666f722074686973206472696e6b0000604082015260600190565b600081518084526020808501945080840160005b838110156126d757815163ffffffff16875295820195908201906001016126b5565b509495945050505050565b600081518084526020808501945080840160005b838110156126d75781516001600160a01b0316875295820195908201906001016126f6565b63ffffffff831681526040602082015261273e60408201835163ffffffff169052565b60006020830151612757606084018263ffffffff169052565b5060408301516001600160a01b03166080830152606083015161010060a084018190526127886101408501836126a1565b91506080850151603f19808685030160c08701526127a68483611e6c565b935060a08701519150808685030160e08701526127c384836126a1565b935060c087015191508086850301838701526127df84836126a1565b935060e08701519250808685030161012087015250506127ff82826126e2565b9695505050505050565b6000816000190483118215151615612823576128236122a8565b500290565b600181815b80851115612863578160001904821115612849576128496122a8565b8085161561285657918102915b93841c939080029061282d565b509250929050565b60008261287a5750600161045d565b816128875750600061045d565b816001811461289d57600281146128a7576128c3565b600191505061045d565b60ff8411156128b8576128b86122a8565b50506001821b61045d565b5060208310610133831016604e8410600b84101617156128e6575081810a61045d565b6128f08383612828565b8060001904821115612904576129046122a8565b029392505050565b6000610d43838361286b565b634e487b7160e01b600052601260045260246000fd5b60008261293d5761293d612918565b500490565b600060ff83168061295557612955612918565b8060ff84160491505092915050565b600060ff821660ff84168160ff0481118215151615612904576129046122a8565b600060ff821660ff84168082101561299f5761299f6122a8565b90039392505050565b6001600160a01b03858116825284166020820152604081018390526080606082018190526000906127ff90830184611e6c565b6000602082840312156129ed57600080fd5b8151610d4381611e0d565b600060ff821660ff84168060ff03821115612a1557612a156122a8565b01939250505056fea26469706673582212203d6da34526eb060e1d2eb04b2a3b65f34ce2d0937c8143bc946715527dd5049464736f6c634300080c0033",
  "libraries": {
    "InfinityMintUtil": "0xe43A67f5dE1b890127A05D61301E1AC959ceac81"
  },
  "devdoc": {
    "kind": "dev",
    "methods": {
      "approve(address,uint256)": {
        "details": "will Throw if tokenId does not exist"
      },
      "isApprovedOrOwner(address,uint256)": {
        "details": "same as open zepps"
      },
      "ownerOf(uint256)": {
        "details": "will Throw if the token does not exist"
      },
      "safeTransferFrom(address,address,uint256)": {
        "details": "Emits a {Transfer} event."
      },
      "safeTransferFrom(address,address,uint256,bytes)": {
        "details": "Emits a {Transfer} event."
      },
      "supportsInterface(bytes4)": {
        "details": "See {IERC165-supportsInterface}."
      },
      "transferFrom(address,address,uint256)": {
        "details": "Emits a {Transfer} event."
      }
    },
    "version": 1
  },
  "userdoc": {
    "kind": "user",
    "methods": {
      "acceptDrink(uint256,bytes)": {
        "notice": "staff members can 'pour' a drink. and the owner can reset it after 72 hours and get an ew drink, the owner of the token gets a new ERC721"
      },
      "approve(address,uint256)": {
        "notice": "Sets an approved adress for this token"
      },
      "balanceOf(address)": {
        "notice": "blanceOf returns the number of tokens an address currently holds."
      },
      "denyDrink(uint256)": {
        "notice": "staff members can deny a drink"
      },
      "exists(uint256)": {
        "notice": "Returns true if a token exists."
      },
      "getApproved(uint256)": {
        "notice": "Returns the approved adress for this token."
      },
      "isApprovedForAll(address,address)": {
        "notice": "Will returns true if the operator is approved by the owner address"
      },
      "isApprovedOrOwner(address,uint256)": {
        "notice": "will returns true if the address is apprroved for all, approved operator or is the owner of a token"
      },
      "name()": {
        "notice": "Returns the name of the ERC721  for display on places like Etherscan"
      },
      "ownerOf(uint256)": {
        "notice": "Returns the owner of a current token"
      },
      "refillDrink(uint256)": {
        "notice": "owners of a drink token can refill their drink every 72 hours"
      },
      "requestDrink(uint256,bytes)": {
        "notice": "allows a user to request a drink by sending a drink code, they can only do this every 72 hours. Bar/approved has to accept the drink with the same drink code."
      },
      "safeTransferFrom(address,address,uint256)": {
        "notice": "Just like the method above except with no data field we pass to the implemeting contract."
      },
      "safeTransferFrom(address,address,uint256,bytes)": {
        "notice": "Just like transferFrom except we will check if the to address is a contract and is an IERC721Receiver implementer"
      },
      "setApprovalForAll(address,bool)": {
        "notice": "Will approve an operator for the senders tokens"
      },
      "supportsInterface(bytes4)": {
        "notice": "this is used by opensea/polyscan to detect our ERC721"
      },
      "symbol()": {
        "notice": "Returns the symbol of the ERC721 for display on places like Polyscan"
      },
      "tokenURI(uint256)": {
        "notice": "Returns the tokens URI Metadata object"
      },
      "transferFrom(address,address,uint256)": {
        "notice": "Transfers a token fsrom one address to another. Use safeTransferFrom as that will double check that the address you send this token too is a contract that can actually receive it."
      }
    },
    "notice": "allows an NFT to redeem an ERC721 which gives them access to a free drink at the marvel, the token owners send drink requests to this contract with a drink code that the bar then has to send back to confirm, if this is is successful then the token will be drained and the token owner can refill their cup in 72 hours, they will also receive an ERC721",
    "version": 1
  },
  "storageLayout": {
    "storage": [
      {
        "astId": 17817,
        "contract": "contracts/__mods/Drink.sol:Mod_Drink",
        "label": "tokens",
        "offset": 0,
        "slot": "0",
        "type": "t_mapping(t_uint256,t_address)"
      },
      {
        "astId": 17822,
        "contract": "contracts/__mods/Drink.sol:Mod_Drink",
        "label": "uri",
        "offset": 0,
        "slot": "1",
        "type": "t_mapping(t_uint256,t_string_storage)"
      },
      {
        "astId": 17827,
        "contract": "contracts/__mods/Drink.sol:Mod_Drink",
        "label": "approvedTokens",
        "offset": 0,
        "slot": "2",
        "type": "t_mapping(t_uint256,t_address)"
      },
      {
        "astId": 17834,
        "contract": "contracts/__mods/Drink.sol:Mod_Drink",
        "label": "operators",
        "offset": 0,
        "slot": "3",
        "type": "t_mapping(t_address,t_mapping(t_address,t_bool))"
      },
      {
        "astId": 17839,
        "contract": "contracts/__mods/Drink.sol:Mod_Drink",
        "label": "balance",
        "offset": 0,
        "slot": "4",
        "type": "t_mapping(t_address,t_uint256)"
      },
      {
        "astId": 17842,
        "contract": "contracts/__mods/Drink.sol:Mod_Drink",
        "label": "_name",
        "offset": 0,
        "slot": "5",
        "type": "t_string_storage"
      },
      {
        "astId": 17845,
        "contract": "contracts/__mods/Drink.sol:Mod_Drink",
        "label": "_symbol",
        "offset": 0,
        "slot": "6",
        "type": "t_string_storage"
      },
      {
        "astId": 17353,
        "contract": "contracts/__mods/Drink.sol:Mod_Drink",
        "label": "deployer",
        "offset": 0,
        "slot": "7",
        "type": "t_address"
      },
      {
        "astId": 17356,
        "contract": "contracts/__mods/Drink.sol:Mod_Drink",
        "label": "executionCount",
        "offset": 0,
        "slot": "8",
        "type": "t_uint256"
      },
      {
        "astId": 17358,
        "contract": "contracts/__mods/Drink.sol:Mod_Drink",
        "label": "approvalCount",
        "offset": 0,
        "slot": "9",
        "type": "t_uint256"
      },
      {
        "astId": 17362,
        "contract": "contracts/__mods/Drink.sol:Mod_Drink",
        "label": "approved",
        "offset": 0,
        "slot": "10",
        "type": "t_mapping(t_address,t_bool)"
      },
      {
        "astId": 8734,
        "contract": "contracts/__mods/Drink.sol:Mod_Drink",
        "label": "erc721",
        "offset": 0,
        "slot": "11",
        "type": "t_contract(InfinityMint)19796"
      },
      {
        "astId": 8737,
        "contract": "contracts/__mods/Drink.sol:Mod_Drink",
        "label": "api",
        "offset": 0,
        "slot": "12",
        "type": "t_contract(InfinityMintApi)20425"
      },
      {
        "astId": 8740,
        "contract": "contracts/__mods/Drink.sol:Mod_Drink",
        "label": "storageController",
        "offset": 0,
        "slot": "13",
        "type": "t_contract(InfinityMintStorage)21626"
      },
      {
        "astId": 8742,
        "contract": "contracts/__mods/Drink.sol:Mod_Drink",
        "label": "currentTokenId",
        "offset": 0,
        "slot": "14",
        "type": "t_uint256"
      },
      {
        "astId": 8746,
        "contract": "contracts/__mods/Drink.sol:Mod_Drink",
        "label": "timeouts",
        "offset": 0,
        "slot": "15",
        "type": "t_mapping(t_uint256,t_uint256)"
      },
      {
        "astId": 8750,
        "contract": "contracts/__mods/Drink.sol:Mod_Drink",
        "label": "requests",
        "offset": 0,
        "slot": "16",
        "type": "t_mapping(t_uint256,t_bytes_storage)"
      },
      {
        "astId": 8754,
        "contract": "contracts/__mods/Drink.sol:Mod_Drink",
        "label": "drinks",
        "offset": 0,
        "slot": "17",
        "type": "t_mapping(t_address,t_bool)"
      }
    ],
    "types": {
      "t_address": {
        "encoding": "inplace",
        "label": "address",
        "numberOfBytes": "20"
      },
      "t_bool": {
        "encoding": "inplace",
        "label": "bool",
        "numberOfBytes": "1"
      },
      "t_bytes_storage": {
        "encoding": "bytes",
        "label": "bytes",
        "numberOfBytes": "32"
      },
      "t_contract(InfinityMint)19796": {
        "encoding": "inplace",
        "label": "contract InfinityMint",
        "numberOfBytes": "20"
      },
      "t_contract(InfinityMintApi)20425": {
        "encoding": "inplace",
        "label": "contract InfinityMintApi",
        "numberOfBytes": "20"
      },
      "t_contract(InfinityMintStorage)21626": {
        "encoding": "inplace",
        "label": "contract InfinityMintStorage",
        "numberOfBytes": "20"
      },
      "t_mapping(t_address,t_bool)": {
        "encoding": "mapping",
        "key": "t_address",
        "label": "mapping(address => bool)",
        "numberOfBytes": "32",
        "value": "t_bool"
      },
      "t_mapping(t_address,t_mapping(t_address,t_bool))": {
        "encoding": "mapping",
        "key": "t_address",
        "label": "mapping(address => mapping(address => bool))",
        "numberOfBytes": "32",
        "value": "t_mapping(t_address,t_bool)"
      },
      "t_mapping(t_address,t_uint256)": {
        "encoding": "mapping",
        "key": "t_address",
        "label": "mapping(address => uint256)",
        "numberOfBytes": "32",
        "value": "t_uint256"
      },
      "t_mapping(t_uint256,t_address)": {
        "encoding": "mapping",
        "key": "t_uint256",
        "label": "mapping(uint256 => address)",
        "numberOfBytes": "32",
        "value": "t_address"
      },
      "t_mapping(t_uint256,t_bytes_storage)": {
        "encoding": "mapping",
        "key": "t_uint256",
        "label": "mapping(uint256 => bytes)",
        "numberOfBytes": "32",
        "value": "t_bytes_storage"
      },
      "t_mapping(t_uint256,t_string_storage)": {
        "encoding": "mapping",
        "key": "t_uint256",
        "label": "mapping(uint256 => string)",
        "numberOfBytes": "32",
        "value": "t_string_storage"
      },
      "t_mapping(t_uint256,t_uint256)": {
        "encoding": "mapping",
        "key": "t_uint256",
        "label": "mapping(uint256 => uint256)",
        "numberOfBytes": "32",
        "value": "t_uint256"
      },
      "t_string_storage": {
        "encoding": "bytes",
        "label": "string",
        "numberOfBytes": "32"
      },
      "t_uint256": {
        "encoding": "inplace",
        "label": "uint256",
        "numberOfBytes": "32"
      }
    }
  }
}